S00D00004543555F312E73726563AA
S11300000C942A000C943F000C943F000C943F0085
S11300100C943F000C943F000C943F000C943F0060
S11300200C943F000C943F000C943F000C943F0050
S11300300C943F000C943F000C943F000C943F0040
S11300400C943F000C943F000C943F000C943F0030
S11300500C943F0011241FBECFE5D8E0DEBFCDBF16
S113006010E0A0E6B0E0E4E3F6E002C005900D92F3
S1130070A83DB107D9F70E9410020C9418030C9400
S113008000000C9401030C94140341E060E082E04E
S11300900C94540041E060E082E00C94B90040E02C
S11300A060E082E00C94B900442379F1413009F016
S11300B05FC0813079F028F08230A9F08330E1F01C
S11300C008952AB381E090E001C0880F6A95EAF7A9
S11300D0822B2CC027B381E090E001C0880F6A9581
S11300E0EAF7822B2EC024B381E090E001C0880F90
S11300F06A95EAF7822B30C021B381E090E001C019
S1130100880F6A95EAF7822B32C0813089F028F093
S11301108230C9F0833011F108952AB381E090E070
S113012001C0880F6A95EAF7809582238ABB0895F7
S113013027B381E090E001C0880F6A95EAF78095C3
S1130140822387BB089524B381E090E001C0880F27
S11301506A95EAF78095822384BB089521B381E0F0
S113016090E001C0880F6A95EAF78095822381BBED
S11301700895442379F1413009F05FC0813079F06A
S113018028F08230A9F08330E1F008952BB381E0A8
S113019090E001C0880F6A95EAF7822B2CC028B33F
S11301A081E090E001C0880F6A95EAF7822B2EC0A7
S11301B025B381E090E001C0880F6A95EAF7822BAD
S11301C030C022B381E090E001C0880F6A95EAF75D
S11301D0822B32C0813089F028F08230C9F083301C
S11301E011F108952BB381E090E001C0880F6A9566
S11301F0EAF7809582238BBB089528B381E090E0D1
S113020001C0880F6A95EAF78095822388BB089518
S113021025B381E090E001C0880F6A95EAF78095E4
S1130220822385BB089522B381E090E001C0880F4A
S11302306A95EAF78095822382BB0895CF93C82FED
S113024040E061E081E00E94B90040E062E081E0CA
S11302500E94B90040E063E081E00E94B9008BB3E2
S11302609C2F907F8F70892B8BBB41E063E081E0F2
S11302700E94B9008FE99FE00197F1F700C00000E8
S113028040E063E081E00E94B9002BB330E1C39FFA
S1130290C0011124922F9F70892B8BBB41E063E036
S11302A081E00E94B9008FE99FE00197F1F700C057
S11302B0000040E063E081E00E94B9008FE19EE429
S11302C00197F1F700C00000CF91089541E061E08B
S11302D081E00E94540041E062E081E00E94540009
S11302E041E063E081E00E94540041E064E080E08A
S11302F00E94540041E065E080E00E94540041E027
S113030066E080E00E94540041E067E080E00E94E3
S113031054002FEF81EE94E0215080409040E1F7AB
S113032000C0000083E30E941E0182E30E941E01BC
S113033088E20E941E018CE00E941E0181E00E945E
S11303401E0186E00E941E0182E00C941E01CF93E0
S1130350C82F41E061E081E00E94B90040E062E022
S113036081E00E94B90040E063E081E00E94B900AE
S11303708C2F807F8BBB41E063E081E00E94B90059
S11303808FE99FE00197F1F700C0000040E063E0CF
S113039081E00E94B900C295C07FCBBB41E063E01D
S11303A081E00E94B9008FE99FE00197F1F700C056
S11303B0000040E063E081E00E94B9008FE19EE428
S11303C00197F1F700C00000CF9108950F931F9398
S11303D0CF938C01C0E0F801EC0FF11D80818823DC
S11303E021F00E94A701CF5FF6CFCF911F910F910B
S11303F00895CF93DF9300D0CDB7DEB790E899830B
S113040090EC9A83FE01E80FF11D8181860F0F9015
S11304100F90DF91CF910C941E0181E00C941E018A
S1130420CF93DF9300D000D0CDB7DEB70E94410058
S11304300E94E0020E94F7022FEF39E688E1215082
S113044030408040E1F700C000000E9466010E9435
S1130450450010E06E0195E0C90ED11C0E940D020A
S113046080E690E00E94E60160E081E00E94F901EC
S1130470FE0131967F010E944300082F0E94A701CC
S1130480FFEF21EE34E0F15020403040E1F700C0AE
S1130490000080E10E941E018AE20E94A701F70188
S11304A001937F01EC15FD0531F78981813309F052
S11304B05DC08A81813309F059C08B81813309F091
S11304C055C08C81813309F051C00E940D028FE622
S11304D090E00E94E601FFEF29E638E1F150204068
S11304E03040E1F700C000000E940D0287E790E071
S11304F00E94E60160E081E00E94F90184E890E056
S11305000E94E6018FEF99E6E8E181509040E040D7
S1130510E1F700C000000E940D0282E990E00E9411
S1130520E60160E081E00E94F9018FE990E00E9419
S1130530E601FFEF29E638E1F15020403040E1F7D1
S113054000C000000E940D028DEA90E00E94E601C6
S11305500E9443009FEFE0E7F2E09150E040F0405A
S1130560E1F700C000000E94FC02F2CF0E940D02DD
S11305708DEB90E00E94E6012FEF39E688E12150EF
S113058030408040E1F700C000001F5F143009F0E4
S113059065CF0E940D028CEC90E00E94E6010E945F
S11305A04A009FEFE3E2F4EF9150E040F040E1F7BE
S11305B000C000000E944F000E940D0210E04ECFC8
S11305C041E064E081E00E94540041E065E081E0A4
S11305D00E94540040E066E081E00E94540041E043
S11305E067E081E00E94540083E58DB9089540E0FE
S11305F064E081E00C94B9008FB9779BFECF8FB192
S1130600089541E061E083E00E94540040E060E02E
S113061083E00E9454008AB188618AB980B58668F3
S113062080BD83E389B908955F9BFECF8CB10895A3
S1070630F894FFCF68
S1130634454E5445522050415353574F524400633E
S11306446F727265637400283129526564204C69A1
S113065467687400283229426C7565204C696768A0
S11306647400283329636C6F7365207265640028F1
S11306743429636C6F736520626C756500283529B1
S11306844D6561737572652054656D700057726FA2
S11306946E672050617373776F7264007761697455
S10B06A420313020536563008E
S9030000FC
