:100000000C942A000C943F000C943F000C943F0089
:100010000C943F000C943F000C943F000C943F0064
:100020000C943F000C943F000C943F000C943F0054
:100030000C943F000C943F000C943F000C943F0044
:100040000C943F000C943F000C943F000C943F0034
:100050000C943F0011241FBECFE5D8E0DEBFCDBF1A
:1000600010E0A0E6B0E0E6EBF6E002C005900D92ED
:10007000A239B107D9F70E9489020C9459030C9454
:1000800000003F983E9A389A359A309A319A329ABF
:1000900033983D98379A0895369A349BFECF64B1D1
:1000A00075B144EF51E0649F9001659F300D749FDE
:1000B000300D1124232F26952695FC0120831182D3
:1000C0000895442379F1413009F05FC0813079F01F
:1000D00028F08230A9F08330E1F008952AB381E05E
:1000E00090E001C0880F6A95EAF7822B2CC027B3F5
:1000F00081E090E001C0880F6A95EAF7822B2EC05C
:1001000024B381E090E001C0880F6A95EAF7822B62
:1001100030C021B381E090E001C0880F6A95EAF712
:10012000822B32C0813089F028F08230C9F08330D0
:1001300011F108952AB381E090E001C0880F6A951B
:10014000EAF7809582238ABB089527B381E090E087
:1001500001C0880F6A95EAF78095822387BB0895CE
:1001600024B381E090E001C0880F6A95EAF780959A
:10017000822384BB089521B381E090E001C0880F01
:100180006A95EAF78095822381BB0895442379F12B
:10019000413009F05FC0813079F028F08230A9F059
:1001A0008330E1F008952BB381E090E001C0880F27
:1001B0006A95EAF7822B2CC028B381E090E001C059
:1001C000880F6A95EAF7822B2EC025B381E090E074
:1001D00001C0880F6A95EAF7822B30C022B381E014
:1001E00090E001C0880F6A95EAF7822B32C0813017
:1001F00089F028F08230C9F0833011F108952BB3D3
:1002000081E090E001C0880F6A95EAF7809582232B
:100210008BBB089528B381E090E001C0880F6A95F8
:10022000EAF78095822388BB089525B381E090E0AA
:1002300001C0880F6A95EAF78095822385BB0895EF
:1002400022B381E090E001C0880F6A95EAF78095BB
:10025000822382BB0895CF93C82F40E061E081E004
:100260000E94C60040E062E081E00E94C60040E0DB
:1002700063E081E00E94C6008BB39C2F907F8F705B
:10028000892B8BBB41E063E081E00E94C6008FE9CF
:100290009FE00197F1F700C0000040E063E081E0DB
:1002A0000E94C6002BB330E1C39FC0011124922FDE
:1002B0009F70892B8BBB41E063E081E00E94C60008
:1002C0008FE99FE00197F1F700C0000040E063E094
:1002D00081E00E94C6008FE19EE40197F1F700C023
:1002E0000000CF91089541E061E081E00E9461004B
:1002F00041E062E081E00E94610041E063E081E072
:100300000E94610041E064E080E00E94610041E001
:1003100065E080E00E94610041E066E080E00E94CC
:10032000610041E067E080E00E9461002FEF81EE14
:1003300094E0215080409040E1F700C0000083E34A
:100340000E942B0182E30E942B0188E20E942B0174
:100350008CE00E942B0181E00E942B0186E00E942C
:100360002B0182E00C942B01CF93C82F41E061E078
:1003700081E00E94C60040E062E081E00E94C60089
:1003800040E063E081E00E94C6008C2F807F8BBB41
:1003900041E063E081E00E94C6008FE99FE00197A1
:1003A000F1F700C0000040E063E081E00E94C60079
:1003B000C295C07FCBBB41E063E081E00E94C600F4
:1003C0008FE99FE00197F1F700C0000040E063E093
:1003D00081E00E94C6008FE19EE40197F1F700C022
:1003E0000000CF9108950F931F93CF938C01C0E02D
:1003F000F801EC0FF11D8081882321F00E94B401E7
:10040000CF5FF6CFCF911F910F9108954F925F92DA
:100410006F927F928F929F92AF92BF92CF92DF9214
:10042000EF92FF924B015C0197FF0BC08DE20E949F
:10043000B401B094A09490948094811C911CA11C50
:10044000B11C61E070E080E090E03AE0432E512C76
:10045000612C712C81149104A104B104A9F0AAE0CB
:10046000B0E09B01AC010E941D036B017C01C50142
:10047000B401A30192010E94FE026C0D7D1D8E1D30
:100480009F1D49015A01E6CF2AE0C22ED12CE12C52
:10049000F12C62307105810591056CF0A701960180
:1004A0000E94FE0249015A0180E3860F0E94B401B6
:1004B000B401C501EECFFF90EF90DF90CF90BF90D9
:1004C000AF909F908F907F906F905F904F90089526
:1004D00081E00C942B0141E062E082E00C94610029
:1004E00041E062E082E00C94C60040E062E082E01D
:1004F0000C94C60041E061E082E00C94610041E0B0
:1005000061E082E00C94C60040E061E082E00C947F
:10051000C600CF93DF931F92CDB7DEB719820E943A
:100520006B020E947A020E9473010E94DE020E9406
:10053000FA0280E00E94F502813339F40E947002D1
:100540000E94680280E690E01AC0823339F40E946B
:100550007F020E9468028AE690E011C0833339F47A
:100560000E9475020E94680285E790E008C084330B
:1005700049F40E9484020E9468028FE790E00E9482
:10058000F301D7CF8533A9F6CE0101960E94FC0274
:100590000E946802698170E080E090E00E9406029B
:1005A0008AE890E00E94F3012FEF84E39CE0215061
:1005B00080409040E1F700C00000BBCF40E064E025
:1005C00081E00E94610040E065E081E00E946100FE
:1005D00041E066E081E00E94610040E067E081E088
:1005E0000E94610080E48DB908958FB9779BFECF9A
:1005F0008FB108950C9441000C944C00052E97FB8C
:100600001EF400940E94150357FD07D00E94280392
:1006100007FC03D04EF40C9415035095409530958B
:1006200021953F4F4F4F5F4F08959095809570955E
:1006300061957F4F8F4F9F4F08950E944A03A59F5A
:10064000900DB49F900DA49F800D911D11240895CD
:10065000A1E21A2EAA1BBB1BFD010DC0AA1FBB1FC6
:10066000EE1FFF1FA217B307E407F50720F0A21B38
:10067000B30BE40BF50B661F771F881F991F1A94A5
:1006800069F760957095809590959B01AC01BD01CF
:10069000CF010895A29FB001B39FC001A39F700D29
:1006A000811D1124911DB29F700D811D1124911D7A
:0606B0000895F894FFCF4D
:1006B600524544204C4947485400426C7565204CCD
:1006C6004947485400636C6F736520524544006384
:1006D6006C6F736520426C7565004465677265656D
:0206E600000012
:00000001FF
